:020000040000FA
:100000003E02040000000000240800002808000050
:100010002C080000300800003408000038080000F8
:100020003C080000400800004408000048080000A8
:100030004C08000050080000540800005808000058
:100040005C08000060080000640800006808000008
:100050006C080000700800007408000078080000B8
:100060007C08000080080000840800008808000068
:100070008C08000090080000940800009808000018
:100080009C080000A0080000A4080000A8080000C8
:10009000AC080000B0080000B4080000B808000078
:1000A000BC080000C0080000C4080000C808000028
:1000B000CC080000D0080000D4080000D8080000D8
:1000C000DC080000E0080000E4080000E808000088
:1000D000EC080000F0080000F4080000F808000038
:1000E000FC080000000900000409000008090000E5
:1000F0000C09000010090000140900001809000094
:100100001C09000020090000240900002809000043
:100110002C090000300900003409000038090000F3
:100120003C090000400900004409000048090000A3
:100130004C09000050090000540900005809000053
:100140005C09000060090000640900006809000003
:100150006C090000700900007409000078090000B3
:100160007C09000080090000840900008809000063
:100170008C09000090090000940900009809000013
:100180009C090000A0090000A4090000A8090000C3
:10019000AC090000B0090000B4090000B809000073
:1001A000BC090000C0090000C4090000C809000023
:1001B000CC090000D0090000D4090000D8090000D3
:1001C000DC090000E0090000E4090000E809000083
:1001D000EC090000F0090000F4090000F809000033
:1001E000FC090000000A0000040A0000080A0000E0
:1001F0000C0A0000100A0000140A0000180A00008F
:10020000FFFFFF00FFFFFF0024F0000028F00000C8
:100210002CF0000030F0000034F0000038F0000056
:100220003CF0000040F0000044F0000048F0000006
:100230004CF0000050F0000054F0000058F00000B6
:100240005CF0000060F0000064F0000068F0000066
:100250006CF0000070F0000074F0000078F0000016
:100260007EF0000080F0000084F0000088F00000C4
:100270008CF0000090F0000094F0000098F0000076
:100280009CF00000A0F00000A4F00000A8F0000026
:10029000ACF00000B0F00000B4F00000B8F00000D6
:1002A000BCF00000C0F00000C4F00000C8F0000086
:1002B000CCF00000D0F00000D4F00000D8F0000036
:1002C000DCF00000E0F00000E4F00000E8F00000E6
:1002D000ECF00000F0F00000F4F00000F8F0000096
:1002E000FCF0000000F1000004F1000008F1000043
:1002F0000CF1000010F1000014F1000018F10000F2
:100300001CF1000020F1000024F1000028F10000A1
:100310002CF1000030F1000034F1000038F1000051
:100320003CF1000040F1000044F1000048F1000001
:100330004CF1000050F1000054F1000058F10000B1
:100340005CF1000060F1000064F1000068F1000061
:100350006CF1000070F1000074F1000078F1000011
:100360007CF1000080F1000084F1000088F10000C1
:100370008CF1000090F1000094F1000098F1000071
:100380009CF10000A0F10000A4F10000A8F1000021
:10039000ACF10000B0F10000B4F10000B8F10000D1
:1003A000BCF10000C0F10000C4F10000C8F1000081
:1003B000CCF10000D0F10000D4F10000D8F1000031
:1003C000DCF10000E0F10000E4F10000E8F10000E1
:1003D000ECF10000F0F10000F4F10000F8F1000091
:1003E000FCF1000000F2000004F2000008F200003E
:1003F0000CF2000010F2000014F2000018F20000ED
:1004000020FF2F0060198800C902A80000002A0000
:10041000210020000D000700F1EE2B00810F50009D
:1004200006003200CBC2BF000008A3000300320068
:1004300020080400000000000300370083E0A8004B
:1004400020F0040000000000000006000400FA0094
:10045000E0BF9F00F1BF9F00910180006FF89700FF
:100460000080FB00900188006FB897001000BA0070
:10047000910188000080FA00000006000F80200033
:10048000807F2400000188000000000000020200BC
:10049000000000000040DA000000FE00910188002A
:1004A0001009BA0000000600910188001049BA0046
:1004B00000000600000000000000FE00FFFFFF003B
:1004C000FFFFFF00FFFFFF00FFFFFF00FFFFFF0038
:1004D000FFFFFF00FFFFFF00FFFFFF00FFFFFF0028
:1004E000FFFFFF00FFFFFF00FFFFFF00FFFFFF0018
:1004F000FFFFFF00FFFFFF00FFFFFF00FFFFFF0008
:10100000501A00000001000013040000000000005E
:10101000FFFFFF00FFFFFF00FFFFFF00FFFFFF00DC
:10102000FFFFFF00FFFFFF00FFFFFF00FFFFFF00CC
:10103000FFFFFF00FFFFFF00FFFFFF00FFFFFF00BC
:1010400060EC040000000000860E040000000000B8
:101050007E32040000000000843204000000000022
:101060008A320400000000009032040000000000FA
:10107000860E040000000000860E04000000000040
:10108000860E040000000000860E04000000000030
:10109000860E040000000000860E04000000000020
:1010A000AA81040000000000860E04000000000079
:1010B000860E040000000000860E04000000000000
:1010C000702E040000000000860E040000000000E6
:1010D000860E040000000000B8900400000000002C
:1010E000860E040000000000860E040000000000D0
:1010F000C06B040000000000860E04000000000029
:10110000860E040000000000860E040000000000AF
:10111000860E040000000000860E0400000000009F
:101120006631040000000000860E0400000000008C
:10113000860E040000000000860E0400000000007F
:10114000860E040000000000860E0400000000006F
:10115000860E040000000000860E0400000000005F
:10116000860E040000000000303104000000000082
:10117000860E040000000000860E0400000000003F
:10118000860E040000000000860E0400000000002F
:10119000860E040000000000860E0400000000001F
:1011A000860E040000000000860E0400000000000F
:1011B000860E040000000000860E040000000000FF
:1011C000860E040000000000860E040000000000EF
:1011D000860E040000000000860E040000000000DF
:1011E000860E040000000000860E040000000000CF
:1011F000860E040000000000860E040000000000BF
:10120000860E040000000000860E040000000000AE
:10121000860E040000000000860E0400000000009E
:10122000860E040000000000860E0400000000008E
:10123000860E040000000000860E0400000000007E
:10124000860E040000000000860E0400000000006E
:10125000860E040000000000860E0400000000005E
:10126000860E040000000000860E0400000000004E
:10127000860E040000000000860E0400000000003E
:10128000860E040000000000860E0400000000002E
:10129000860E040000000000860E0400000000001E
:1012A000860E040000000000860E0400000000000E
:1012B000860E040000000000860E040000000000FE
:1012C000860E040000000000860E040000000000EE
:1012D000860E040000000000860E040000000000DE
:1012E000860E040000000000860E040000000000CE
:1012F000860E040000000000860E040000000000BE
:10130000860E040000000000860E040000000000AD
:10131000860E040000000000860E0400000000009D
:10132000860E040000000000860E0400000000008D
:10133000860E040000000000C03004000000000021
:10134000860E040000000000860E0400000000006D
:10135000860E040000000000860E0400000000005D
:10136000860E040000000000860E0400000000004D
:10137000860E040000000000860E0400000000003D
:10138000860E040000000000860E0400000000002D
:10139000860E040000000000860E0400000000001D
:1013A000860E040000000000860E0400000000000D
:1013B000860E040000000000860E040000000000FD
:1013C000860E040000000000860E040000000000ED
:1013D000860E040000000000860E040000000000DD
:1013E000860E040000000000860E040000000000CD
:1013F000860E040000000000860E040000000000BD
:10140000860E040000000000860E040000000000AC
:10141000860E040000000000860E0400000000009C
:10142000860E040000000000860E0400000000008C
:10143000860E040000000000FFFFFF00FFFFFF001A
:10144000FFFFFF00FFFFFF00FFFFFF00FFFFFF00A8
:10145000FFFFFF00FFFFFF00FFFFFF00FFFFFF0098
:10146000FFFFFF00FFFFFF00FFFFFF00FFFFFF0088
:10147000FFFFFF00FFFFFF00FFFFFF00FFFFFF0078
:10148000FFFFFF00FFFFFF00FFFFFF00FFFFFF0068
:10149000FFFFFF00FFFFFF00FFFFFF00FFFFFF0058
:1014A000FFFFFF00FFFFFF00FFFFFF00FFFFFF0048
:1014B000FFFFFF00FFFFFF00FFFFFF00FFFFFF0038
:1014C000FFFFFF00FFFFFF00FFFFFF00FFFFFF0028
:1014D000FFFFFF00FFFFFF00FFFFFF00FFFFFF0018
:1014E000FFFFFF00FFFFFF00FFFFFF00FFFFFF0008
:1014F000FFFFFF00FFFFFF00FFFFFF00FFFFFF00F8
:10150000FFFFFF00FFFFFF00FFFFFF00FFFFFF00E7
:10151000FFFFFF00FFFFFF00FFFFFF00FFFFFF00D7
:10152000FFFFFF00FFFFFF00FFFFFF00FFFFFF00C7
:10153000FFFFFF00FFFFFF00FFFFFF00FFFFFF00B7
:10154000FFFFFF00FFFFFF00FFFFFF00FFFFFF00A7
:10155000FFFFFF00FFFFFF00FFFFFF00FFFFFF0097
:10156000FFFFFF00FFFFFF00FFFFFF00FFFFFF0087
:10157000FFFFFF00FFFFFF00FFFFFF00FFFFFF0077
:10158000FFFFFF00FFFFFF00FFFFFF00FFFFFF0067
:10159000FFFFFF00FFFFFF00FFFFFF00FFFFFF0057
:1015A000FFFFFF00FFFFFF00FFFFFF00FFFFFF0047
:1015B000FFFFFF00FFFFFF00FFFFFF00FFFFFF0037
:1015C000FFFFFF00FFFFFF00FFFFFF00FFFFFF0027
:1015D000FFFFFF00FFFFFF00FFFFFF00FFFFFF0017
:1015E000FFFFFF00FFFFFF00FFFFFF00FFFFFF0007
:1015F000FFFFFF00FFFFFF00FFFFFF00FFFFFF00F7
:101600009C7C040000000000783E04000000000004
:10161000D07904000000000080017800020037004B
:10162000815978000201E9000200E000FCFF3A0065
:10163000000006000B00370010427800914178004E
:10164000834F5200040032000081EB000700390094
:1016500012002000050037000000E8008100E800CB
:101660000201E9000200E000F3FF3A000200780006
:10167000000006008001780002003700B1597800B0
:101680000201E9000200E000FCFF3A000000060051
:10169000889FBE008A9FBE008C1F78002D01070026
:1016A0003401330003866C006450E10024003200F2
:1016B0006420E100270032006150E1002200320086
:1016C0006120E100210032008B854200EB07B10070
:1016D0000134B800003AB8000804420089844A0086
:1016E000013AB8000030B8008880400009014A0083
:1016F00004003300000040008180480002014900DE
:101700008B05E900C909DD0083017000010032008A
:1017100013002000C814DE004814DD004709DE0075
:101720001200B200C808DE00088470002101070022
:1017300001F0A1000CF0A70001F0A0001601370095
:101740006120E100180132000801BE000200BE0065
:10175000F7FF37006150E100FCFF3A00120137004B
:101760000001BE00390107000470A70003F0A100CA
:1017700003F8A30013003A006509B100100032001D
:10178000090035006928E100020035000100280049
:101790000000050000004000818048008502E9004B
:1017A000FCFF3A0000000600F88F420005003500FB
:1017B0008100D1000080D3008502E800FCFF3A00E0
:1017C000000006008000EB0000000500889FBE00BE
:1017D0008A9FBE00010578000100E000040035008A
:1017E00008003C000000E000200032000500370047
:1017F00060001000E080180002003B0001F02C00A7
:101800001A0037000004BE006011B8006B09200008
:101810000982CF00020039000882CF000441B000E5
:10182000694252000E00320008003B0082817100C4
:10183000610164008904D1000884D3008B05E800AD
:101840000442E800F9FF3A000500370008044400AC
:1018500089844C008B05E9000442E900FBFF3A0053
:10186000D40007000AF0A70001F0A0004F05BE0059
:101870004F04BE000000060003F0A200889FBE00D7
:101880008A9FBE008C1F7800B2000700B9003300A9
:101890006450E1004F0032006420E1005200320049
:1018A00003826C0007003B000905D0000306D0004E
:1018B000820F54000C065D00020039000200320065
:1018C00089017800030678008582550004003D00F8
:1018D0000003FD008103FD008502EA008B854200C4
:1018E000840F720002003B0060001000E0801800CE
:1018F0006011B8000005EB007A28E1000A00390009
:1019000006007800C75DDD00F707B200878075002C
:101910002D003700828171000A01780061056000A6
:101920008180D1000080D3008502E900F9FF3B00EF
:10193000060440008784480002003B006004140055
:10194000E0841C000988A300070032008A8171002E
:1019500082817100610164008904D1000884D30090
:101960008B05E800170037000978A30013003A0040
:101970000B00E000130034008B05E900080444006C
:1019800089844C000A4474000978A3000D003A00D1
:101990000B00E000070034008B05E9000804440058
:1019A00089844C0001003A000B0020000978A30054
:1019B000F7FF32000001EB00020037008281710066
:1019C0000A0178007B0007000CF0A70001F0A000DE
:1019D000710037006420E10002003A00838F6C0040
:1019E000710033000801BE000200BE006A0037002B
:1019F000889FBE008A9FBE008C1F7800550007009C
:101A00005C00330003866C006450E1002E0032005D
:101A10006420E100330032006150E1002F00320009
:101A20006120E1003100320085855500EB07B000F0
:101A300009002000080420000500370008044400C5
:101A400089844C000A0031000603430087834B0061
:101A50000001530081815B00F8FF33000203BE00E8
:101A60000800A0000804440089844C00F6FF3900F7
:101A7000C639DD008301730001003200130020002D
:101A80008904D1000884D3000998A300050032001E
:101A90000800A7000300A0008904D1000884D30037
:101AA0008B05E8008904D1000884D3000001EB0015
:101AB0000281D2003F00070001F0A1000CF0A70056
:101AC00001F0A000340037006420E100360032004D
:101AD0000801BE000200BE00F7FF37006120E100F0
:101AE000310032006000B800F3FF37000000200032
:101AF00001F82700F0FF37006022B800060220003E
:101B00000000D0008180D2000482D2008582D20001
:101B10000000A0000202520083825A00030031003C
:101B20000202420083824A000000A1000603E9008D
:101B3000F3FF3A0000000600F4FF2F0058003700C2
:101B40001400200056003700EBFF07000400BE0021
:101B5000000006000004BE003C0007000003BE00B9
:101B60000405BE000200BE0038000700844F750067
:101B7000000006000200BE006450E10005003600CF
:101B80006420E100020036000968A30001003A0069
:101B90000800BE000160A0004F0678004F05BE009F
:101BA0004F04BE0000000600F0FF2F00F1FF2700E9
:101BB000F9FF370081002000618055000B003D00D7
:101BC0000B00200061FE2F000100E1001D00340029
:101BD00082817100610164008904D1000884D3000E
:101BE0000000E800FAFF3A00710020006100640084
:101BF000030070000200600009003200610444002C
:101C0000E0844C000988A500050032008B05E8003F
:101C10006808E10002003A008904D1000884D3007A
:101C2000F20F20000258E10005003D00C75DDD0015
:101C3000F907B200898075000800780000000600EE
:101C40000BF827008B00780000000500C70ADE00B3
:101C5000F107B200F50FB20008003200E1CF4200F8
:101C6000020032000170A00024000500810F700006
:101C7000010032000408050044000500810F7000D7
:101C800002003A00140005008502E900000040004F
:101C900081C04800FCFF3B000170A000240005004B
:101CA000889FBE008A9FBE00841F7800A9FF07009E
:101CB0004F00780011003300F0FF2F00838F6C007D
:101CC00006003B00040565000A00A7000800370075
:101CD00009F0A6001000200008003700820F540011
:101CE000838F5C00030039001000200001003E00DB
:101CF0000000200009F0A7000000EA004F05BE0028
:101D00004F04BE000000E000000006000000FE00DE
:101D10000400FA000040EB00304798000040EB0060
:101D2000204798000040EB00104798000040EB006F
:101D3000004F7800712521000040EB0080487800BA
:101D4000612521000040EB0080487800F245020048
:101D500000000000D2360200000000000000370042
:101D60003E4090000004E0000B003A00100020000C
:101D7000D83B0200000000000004E00006003A002A
:101D800010C0B3003047980001C2B3000040EB0020
:101D9000283502000000000051000700D003200099
:101DA000D83B0200000000000004E0002E003200DA
:101DB000C0032000D83B020000000000004F780064
:101DC00090042000D83B0200000000000004E00066
:101DD00025003A000040EB00B2360200000000008F
:101DE0000001EB00D1032000100020009A3802000F
:101DF000000000001E04E00015003A000040EB0067
:101E0000AC6B0200000000000040EB00104798009F
:101E10004D0C07000004E000010032002E0C07000A
:101E2000F70507000040EB00CA3C0200000000007C
:101E3000803E200001002000F43602000000000077
:101E400010C0B300AC6B02000000000003003700BC
:101E500010C0B300CA3C02000000000010C0B30074
:101E6000B2360200000000006F0C0700CBC2BF00BA
:101E7000614060000004E0000F003A002E40900036
:101E80000004E000B6FF3A0010C0B30020479800FD
:101E9000545F02000000000010C0B300B236020020
:101EA000000000000071220001002000F436020052
:101EB00000000000AAFF37002E4090000004E00060
:101EC000A7FF32000071220001002000F43602005A
:101ED000000000000040EB0020479800A0FF370002
:101EE0001C00FA00881F780010C0B300004F780073
:101EF000ED0437000040EB00B236020000000000A5
:101F0000E03F2100104078000004E00005003A00A6
:101F10000001EB00810020000000EB009A38020075
:101F2000000000000E80E8002200200003002000D6
:101F3000E2780200000000000001EB0091002000A8
:101F4000100020009A380200000000009E0090005F
:101F500050022000808F5000190032009E00900037
:101F6000E0032000808F5000150032009E0090009A
:101F700090022000808F5000110032009E009000DF
:101F800050062000808F50000D0032009E0090000F
:101F9000D0022000808F5000090032001E00900007
:101FA000F70F5000060032000E80E8008040EB0082
:101FB00022002000030020004E7A020000000000F2
:101FC0001E0090006101B80030FF2F00F1FF2F00CC
:101FD0000201400083814800420F9800530F98008F
:101FE00070092000010020004E099000DE099000D9
:101FF000800F5100818F590093043E004E089000DD
:10200000DE08900000600100A5003700E300370003
:10201000310137007C0137000B023700C601370061
:10202000E70137001D0237003F0237008604370002
:102030008D003700840437008304370082043700A2
:1020400081043700800437007F0437007E043700A6
:102050007D04370003043700800237007A0437001C
:10206000610237008004370028043700300437004D
:102070005F023700740437002A0437007204370007
:102080007104370070043700230437006E043700F2
:102090006D0437006C0437006B0437006A043700A6
:1020A00069043700680437006704370066043700A6
:1020B00065043700640437006304370062043700A6
:1020C00061043700600437005F043700660437009E
:1020D00020043700750237002A0437007E033700DA
:1020E00059043700FF0337003E033700A0033700D1
:1020F00036043700540437005304370052043700C5
:1021000051043700500437004F0437004E043700A5
:102110004D043700A0033700670237006A0237001A
:102120006D023700700237008302370086023700E5
:10213000A2033700880237008B02370042043700C1
:1021400041043700400437003F0437003E043700A5
:10215000A8033700B9033700BA033700BB033700C1
:102160002A033700380437003F04370036043700AD
:1021700035043700340437003304370032043700A5
:1021800031043700300437002F0437002E043700A5
:102190002D043700780237008E0237002A043700FA
:1021A00029043700280437002704370026043700A5
:1021B00025043700240437002304370022043700A5
:1021C00021043700200437001F0437001E043700A5
:1021D0001D0437001C0437001B0437001A043700A5
:1021E0008E023700B0023700BC023700CA02370047
:1021F000E402370044033700E002370012043700DE
:1022000011043700100437000F0437000E043700A4
:102210000D0437000C043700490337003C03370036
:10222000410337000804370007043700060437006D
:1022300005043700040437000304370002043700A4
:102240000104370000043700FF033700FE033700A6
:10225000FD033700F3023700DE033700DF033700EA
:10226000EB033700F1033700640047002200200031
:1022700003002000E278020000000000FA7802006B
:10228000000000000080FB00100798001E00900076
:10229000804078002E0090002E050700F2033700E2
:1022A000640047002200200003002000E2780200C2
:1022B000000000002E0090000000E000340032001A
:1022C000366A020000000000AE00900020252100C8
:1022D00011009800AE009000E0ED20000128990068
:1022E000212521001000200080087800D06A02001B
:1022F0000000000010002000AE35020000000000C9
:1023000010C0B3000C3502000000000020002000C7
:10231000B46902000000000070002000D83B0200F9
:10232000000000000004E0000500320000092D005C
:1023300031002000F43602000000000004003700E5
:1023400060D8230001002000F436020000000000E5
:10235000A66402000000000002002000A347240041
:10236000480B020000000000B00B0200000000005B
:1023700020079800640047008040EB002200200006
:10238000030020004E7A020000000000B603370070
:10239000366A020000000000B30337006400470003
:1023A0002200200003002000E2780200000000006C
:1023B0002E0090000000E000410032000040EB00E1
:1023C000A86C020000000000366A02000000000055
:1023D0002125210080022000900098002125210065
:1023E0001000200080087800AE009000E0ED200092
:1023F00011289900E1ED200061D092000000A100B9
:10240000E0D09A00D06A0200000000001000200016
:10241000AE3502000000000010C0B3000C35020011
:102420000000000020002000B4690200000000004D
:1024300010C0B300146D02000000000010C0B30013
:10244000A86C02000000000070002000D83B0200D1
:10245000000000000004E0000500320000092D002B
:1024600031002000F43602000000000004003700B4
:1024700060D8230001002000F436020000000000B4
:10248000EA6402000000000002002000A3472400CC
:10249000480B020000000000B00B0200000000002A
:1024A00020079800640047008040EB0022002000D5
:1024B000030020004E7A0200000000006A0337008B
:1024C0000040EB00A86C020000000000366A020029
:1024D000000000006403370010C0B300146D020058
:1024E00000000000A07B0200000000000000EB00E4
:1024F0002007980036003700CC780200000000006A
:102500000004E000FCFF32000E80E8002200200002
:1025100003002000E2780200000000002E0090007E
:10252000126802000000000070002000D83B02008A
:10253000000000000004E0000500320000092D004A
:1025400031002000F43602000000000004003700D3
:1025500060D8230001002000F436020000000000D3
:102560003865020000000000300798006400470052
:102570008040EB0022002000030020004E7A020081
:1025800000000000660047008040EB0022002000B1
:10259000030020004E7A0200000000000000EB0063
:1025A00030079800680047008040EB0022002000C0
:1025B000030020004E7A020000000000A07B020011
:1025C000000000002E0090006400400020079800EA
:1025D000AE00900000032000808F5000C6FF360040
:1025E000CC780200000000000004E000FCFF320094
:1025F0000E80E8002200200003002000E2780200A4
:10260000000000001803370010C0B300A86C0200DF
:1026100000000000A07B0200000000000000EB00B2
:102620002007980036003700CC7802000000000038
:102630000004E000FCFF32000E80E80022002000D1
:1026400003002000E2780200000000002E0090004D
:10265000DC6502000000000070002000D83B020092
:10266000000000000004E0000500320000092D0019
:1026700031002000F43602000000000004003700A2
:1026800060D8230001002000F436020000000000A2
:102690003865020000000000300798006400470021
:1026A0008040EB0022002000030020004E7A020050
:1026B00000000000660047008040EB002200200080
:1026C000030020004E7A0200000000000000EB0032
:1026D00030079800680047008040EB00220020008F
:1026E000030020004E7A020000000000A07B0200E0
:1026F000000000002E0090006400400020079800B9
:10270000AE00900000072000808F5000C6FF36000A
:10271000CC780200000000000004E000FCFF320062
:102720000E80E8002200200003002000E278020072
:1027300000000000CC02370010C0B300A86C0200FB
:1027400000000000A07B0200000000000E00370027
:10275000CC780200000000000004E000FCFF320022
:102760000E80E8002200200003002000E278020032
:1027700000000000A07B0200000000001E0090008E
:10278000A0690200000000009E009000F00F2000F1
:10279000808F5000EEFF3A00CC780200000000006D
:1027A0000004E000FCFF32000E80E8002200200060
:1027B00003002000E278020000000000AA023700B7
:1027C00010C0B300146D020000000000A07B0200E6
:1027D000000000000E003700CC780200000000006E
:1027E0000004E000FCFF32000E80E8002200200020
:1027F00003002000E278020000000000A07B02003D
:10280000000000001E009000AA6902000000000005
:102810009E009000F00F2000808F5000EEFF3A00E5
:10282000CC780200000000000004E000FCFF320051
:102830000E80E8002200200003002000E278020061
:102840000000000088023700E4E2A800E462A9006A
:1028500010C0B300146D020000000000A664020066
:102860000000000002002000A3472400480B0200E3
:1028700000000000B00B02000000000020079800DC
:10288000640047008040EB0022002000030020008D
:102890004E7A02000000000073023700B46B0200A1
:1028A000000000000E80E80022002000030020004D
:1028B000E2780200000000001E0490006140B900B0
:1028C000E60B020000000000200F9800310F980076
:1028D0000800E00008003D0002002000037824000A
:1028E0002E089000BE0890003E0C02000000000080
:1028F000200F9800310F98002E089000BE0890001D
:1029000002002000A3472400F80C02000000000091
:10291000D06602000000000010C0B300A86C0200E6
:102920000000000050023700B46B020000000000FD
:102930000E80E8002200200003002000E278020060
:1029400000000000E4E2A800E462A9001E04900078
:102950006140B900E60B020000000000000F980083
:10296000110F98000800E00008003D000200200060
:10297000037824000E0890009E0890003E0C020090
:1029800000000000000F9800110F98000E08900042
:102990009E08900002002000A3472400F80C0200CB
:1029A00000000000906802000000000040232100A9
:1029B000100798000E80E8008040EB002200200005
:1029C000030020004E7A02000000000010C0B30097
:1029D000146D0200000000000040EB00146D0200C6
:1029E00000000000200237006D0307001E023700C0
:1029F000AE4A020000000000200798002E00900060
:102A00008040EB00614F98000000E00002003A00B7
:102A100012C0B300624F98008040EB006E489000F7
:102A20000E030700640047008040EB0022002000F6
:102A3000030020004E7A020000000000E13F210068
:102A400010C0B3008048780001C2B3000040EB0022
:102A50002835020000000000030237006400470030
:102A60002200200003002000E278020000000000A5
:102A7000AE00900050AA2500808F500007003A0059
:102A80008040EB0010C0B300F4020700A07B0200FE
:102A90000000000076090700F30137008040EB00DA
:102AA0000040EB00ED020700EF0137002A060700A7
:102AB00065060700EC01370011C0B30020002000BC
:102AC000D3060700E801370011C0B3000000EB0097
:102AD000CF060700E401370011C0B300300020002A
:102AE000CB060700E0013700E0ED2000E0D09200C7
:102AF00000C8B30000C060000004E0000A0032001B
:102B0000E0ED200060D092000044B2000004E0003C
:102B1000050032000C0907000004E000020032004A
:102B2000AF080700D001370011C0B30040002000FB
:102B3000B7060700CC01370011C0B3001000200019
:102B4000B3060700C801370011C0B30070002000B1
:102B5000AF060700C401370011C0B30060002000B9
:102B6000AB060700C001370011C0B30050002000C1
:102B7000A7060700BC013700E03F21008040EB00C2
:102B80000148780010C0B300527B02000000000032
:102B9000050907000004E000040032008040EB005B
:102BA00010C0B300AD020700030037008040EB0007
:102BB0000040EB00A902070000F720008040EB0076
:102BC00042002000030020004E7A020000000000B6
:102BD000A501370011C0B3000000EB004307070058
:102BE000004F78001E04E00008003A00EE080700DD
:102BF000004F78001E04E000040032008040EB002B
:102C00000000EB0039070700004F78008040EB0020
:102C10001E407800910207009301370011C0B300F5
:102C20001000200031070700004F78008040EB00C3
:102C30001E407800890207001E04E0008A0132006D
:102C4000A07B020000000000F03F2100104078004F
:102C50000004E000040032000071220001002000A6
:102C6000F43602000000000011C0B3006000200034
:102C70001E070700004F7800F03F21001040780049
:102C80000004E00004003200007122000100200076
:102C9000F4360200000000008040EB001E40780087
:102CA000860207007001370011C0B3000000EB007E
:102CB0000E070700004F78001E04E00003003200FA
:102CC0002E45020000000000004F78008040EB001D
:102CD0001E40780061020700630137009A08070070
:102CE0000004E0000500320011C0B3002000200005
:102CF000FE060700004F78000300370011C0B30044
:102D000090002000420607008040EB001E40780043
:102D1000520207005401370011C0B3000000EB005D
:102D2000F2060700004F78001E04E00004003200A5
:102D30006A0047000643020000000000004F7800D0
:102D40001E04E00003003A0011C0B3004000200060
:102D5000E60607008040EB001E4078003F020700B7
:102D60006A0047008040EB00420020000300200082
:102D70004E7A0200000000003B01370051010700BD
:102D8000390137006A00470042002000030020009C
:102D9000E27802000000000011C0B3000000EB0068
:102DA000D2060700004F78001E04E0000400320045
:102DB0006A0047009643020000000000004F7800C0
:102DC0001E04E00003003A0011C0B30040002000E0
:102DD000C60607008040EB001E4078001F02070077
:102DE0002101370080642100010420000305070051
:102DF00010C0B300527B0200000000008040EB00D6
:102E000010C0B30015020700170137003D0B070083
:102E1000004F78008040EB001E4078000F02070052
:102E20001101370064004700220020000300200049
:102E3000E27802000000000010C0B300527B0200E4
:102E4000000000002E0090000000E0000D003200A5
:102E500020002000B469020000000000004F78004C
:102E6000E1ED200061F892000000A000E0F89A0077
:102E7000E1ED200061F892000010A000E0F89A0057
:102E800011003700300807000004E00004003A0099
:102E9000C245020000000000366A02000000000087
:102EA00010C0B300004F7800E1ED200061F89200FF
:102EB0000000A100E0F89A00E1ED200061F8920026
:102EC0000010A100E0F89A008040EB001E4078005E
:102ED000E2010700E400370013C0B30012C0B300E2
:102EE00041C0B30000072000320A0700004F7800FD
:102EF0008A370200000000008040EB001E4078008E
:102F0000D6010700D80037001B050700D6003700A0
:102F100069070700004F78008040EB001E407800F2
:102F2000CE010700D0003700C0070700004F78002F
:102F30008040EB001E407800C8010700CA0037003F
:102F4000A003210061012000AC04070010C0B30001
:102F5000527B0200000000000040EB00004F7800B0
:102F60008040EB001E407800BC010700BE00370027
:102F70008040EB0010C0B300B801070060032100DF
:102F80008040EB0042002000030020004E7A020047
:102F900000000000B400370000F820000104200009
:102FA00096040700845C0200000000008040EB00F3
:102FB00010C0B300A9010700AB0037008005210055
:102FC000410020008D040700E0ED2000C09090003B
:102FD000309090000030A000E2ED20003091980089
:102FE000419198008040EB0010C0B3009B010700A6
:102FF0009D003700800620002007980064004700ED
:103000008040EB0022002000030020004E7A0200E6
:10301000000000008040EB0010C0B3008F010700EB
:1030200000FC20008040EB0082062000030020000E
:103030004E7A0200000000008B003700C402070037
:10304000890037004E02070087003700960407000A
:10305000004F78008040EB001E4078007F010700A1
:1030600081003700600020002007980064004700BE
:103070008040EB0022002000030020004E7A020076
:1030800000000000386502000000000080007800A9
:10309000E0ED2000512099002E65020000000000A4
:1030A00080007800E0ED200071209900E0ED200024
:1030B000F0209100E0ED2000612099008040EB00BD
:1030C00010C0B30065010700800221008040EB00C2
:1030D00062002000030020004E7A02000000000081
:1030E000610037008040EB0010C0B3005B010700B7
:1030F000A0EC20008040EB004201200003002000F3
:103100004E7A02000000000057003700C07A02002B
:103110000000000054003700F13F210010C0B30050
:1031200080487800C07A0200000000004E0037009E
:1031300010C0B300527B02000000000034470200C0
:10314000000000008040EB0010C0B3004301070006
:10315000450037008040EB0010C0B3003F0107007E
:10316000806821008040EB00020220000300200064
:103170004E7A0200000000004A3E020000000000FB
:1031800039003700600120002007980064004700E4
:103190008040EB0022002000030020004E7A020055
:1031A000000000008040EB0010C0B3002B010700BE
:1031B00040EB20008040EB00620120000300200073
:1031C0004E7A02000000000027003700240A0700A2
:1031D00025003700B30A070023003700185F0200FC
:1031E00000000000800078000040EB00004F7800F5
:1031F0000100E00002003A0010C0B300004F780068
:103200008040EB001E4078001401070016003700D4
:10321000FC5D020000000000004F78008040EB00E1
:103220001E4078000D0107000F003700E85E020025
:1032300000000000004F78008040EB001E40780046
:1032400006010700080037000001EB009100200094
:103250000000EB009A380200000000008040EB0004
:103260000040EB00FD000700A07B02000000000012
:103270000000EB0010079800E03F210010407800AC
:103280000004E00005003A000001EB00810020008E
:10329000100020009A3802000000000010C0B300A7
:1032A000B236020000000000CC78020000000000EE
:1032B0000004E0000FFB3A004F0478000080FA00A1
:1032C000000006001A00FA006000B80060079800CD
:1032D000710798000040EB00104798000040EB0099
:1032E000004F7800680047004200200003002000E3
:1032F000E278020000000000640047004200200065
:1033000003002000E2780200000000007400470083
:103310002200200003002000E278020000000000EC
:10332000E0ED200000909000E60F500002003A000F
:1033300010C0B300104798001E4090000004E00049
:1033400007003A00E0ED200060D092006840600085
:103350000004E0000200320010C0B300004F78000B
:103360001E4090000004E0001E0032002E0090007D
:10337000BE009000F2FF2F00F3FF21000002780052
:10338000810278000200780083007800000162006A
:10339000018062006102B800340F9800450F980068
:1033A0003E089000CE089000C000DD000000200024
:1033B000300F9800410F98003E089000CE08900012
:1033C0006112B800340F9800450F98003E09900034
:1033D000CE099000020070008380700020079800E2
:1033E0003107980011C0B3000000EB003F05070053
:1033F000204798002E4090000004E0007500320045
:1034000010C0B300527B0200000000001E04E00068
:10341000030032002E0890000000E0000A003A008D
:103420004E019000DE0190002E039000BE0390003C
:103430006C004700000278000600BE002043020036
:1034400000000000204798002E0890000000E000D7
:10345000600032001E4090000004E00012003A00BC
:103460002E4090000004E0000F0032002E4090003B
:103470000004E000040032006400470096430200AC
:1034800000000000204798002E4090000004E0005B
:103490000C003200700047000643020000000000EC
:1034A00020479800070037002E4090000004E000FD
:1034B00004003200700047000643020000000000D4
:1034C000204798002E019000BE0190000E08900049
:1034D0009E089000800F5100818F590005003A002E
:1034E0002E4090000004E0000200320010C0B30043
:1034F000204798002E4090000004E0002600320093
:103500001E04E00004003A002E4502000000000006
:103510002047980020003700E80047006033B800DB
:10352000440020000500200002F8200003002000D5
:10353000C0C0B300CA43020000000000204798004A
:103540006000B80040079800510798002E40900096
:103550000004E0000A003200E80047006033B800D1
:10356000440020000500200042F820000300200055
:10357000C0C0B300CA43020000000000204798000A
:103580002E4090000004E00003003200424502009B
:1035900000000000204798002E4090000004E0004A
:1035A0000C0032001E04E0000A003A006E01900098
:1035B000FE0190002E039000BE03900068004700BB
:1035C000000278000600BE00204302000000000058
:1035D000204798008040EB002E4090001F0007001D
:1035E0006C0047008040EB004200200003002000F8
:1035F0004E7A0200000000000080FA000000060081
:103600000000FA000001EB00E103200010002000A0
:103610009A380200000000000001EB00F1032000D6
:10362000100020009A380200000000000001EB00AA
:1036300001042000100020009A3802000000000061
:10364000585C02000000000060042000D83B02002B
:10365000000000000080FA00000006000400FA00EC
:1036600020479800314798003E4090000004E00059
:1036700002003200A07B0200000000002E409000FB
:103680000004E000030032000000EB00000F7800AF
:1036900002003700F00F2000000F78000E007800C5
:1036A0008040EB0022002000030020004E7A020040
:1036B000000000000080FA00000006000800FA0088
:1036C00060479800714798000040EB004047980021
:1036D0007E4090000004E00002003200A07B020067
:1036E000000000006E4090000004E0000300320083
:1036F0000000EB001007980002003700F00F2000D8
:10370000100798000E80E8008040EB0022002000A7
:10371000030020004E7A02000000000040C3B30006
:10372000004F780007003700640047008040EB003E
:1037300012002000030020004E7A0200000000006A
:103740001E4FE9001E04E000F7FF3A000080FA0077
:10375000000006000600FA00100798004147980094
:103760000040EB00004F780007003700640047007E
:103770008040EB0012002000030020004E7A02007F
:10378000000000001E4FE8009E80FB001E0090001D
:10379000808F5000F5FF39000080FA00000006001D
:1037A0000A00FA000E80E80042002000030020001A
:1037B000E27802000000000066004700420020009E
:1037C00003002000E2780200000000003E019000AB
:1037D000CE0190001E009000AE0090004400070053
:1037E000104798001E4090000004E0000B003200DB
:1037F0003E009000CE009000610160006000B800C3
:103800000300200002007000838070000000E000D0
:10381000020032000040EB00104798008040EB00AF
:103820001E4090008DFF0700A07B020000000000FA
:103830000040EB00AC6B020000000000A66B020031
:10384000000000001E4090000004E0002100320053
:103850003E019000CE0190001E009000AE0090004E
:103860009099020000000000104798008040EB0093
:103870001E40900079FF0700A07B020000000000BE
:103880001E4090000004E00017003200CD42A90065
:10389000CD62A8001241020000000000004F780035
:1038A00020C0B3009E4F100002003A008033020097
:1038B0000000000000242400F1002000F436020083
:1038C00000000000E4340200000000000000FE00E0
:1038D000050037008040EB000040EB005FFF070071
:1038E000A07B0200000000000080FA00000006003B
:1038F0000A00FA00008FBE002207980033079800E4
:103900002E009000BE009000320020000300200036
:103910007C0D020000000000000040008180480093
:10392000200798003107980000002F0001002000B8
:10393000BE0F1000AE8F18000C003A002E00900051
:10394000BE0090003E014000AE81480000002A0009
:1039500021002000800F5100818F590003003E009C
:103960001000200040079800020037000000EB0024
:10397000400798004E0090000080FA00000006000A
:103980001200FA0068004700220020000300200017
:10399000E2780200000000006A00470042002000B8
:1039A00003002000E2780200000000006E004700E3
:1039B0004200200003002000E27802000000000026
:1039C0005E009000EE009000765C020000000000B7
:1039D000CE00900000022000808F50000D003A00C1
:1039E00000002400CF80DE00E2ED20007039980056
:1039F00001819800E0ED20008080900070389000F8
:103A0000E2ED2000208198003181980020F620000E
:103A1000D0B688005E019000EE0190004E0090004C
:103A20008E80E8000C51020000000000004F78007A
:103A300010C0B3009E4F100042003A007E0190007B
:103A40008E0990001E039000AE0390004E0090007F
:103A50000202BE000601BE00205502000000000068
:103A6000004F780010C0B3009E4F100030003A00A5
:103A70001E009000AE009000E03302000000000045
:103A80001E019000AE0190004E00900000437800AF
:103A90006E004700EA0047000202BE008001780085
:103AA000010178008640780020C0B3004C01070077
:103AB000004F78001E009000AE009000E03302003E
:103AC000000000007E0090008E089000245B020041
:103AD00000000000300798008040EB001E40780096
:103AE000DEFE07001E04E000140032001E009000FD
:103AF000AE009000E0330200000000007E01900064
:103B00008E0990008040EB000000EB004E7A02002E
:103B100000000000660047008040EB00220020000B
:103B2000030020004E7A020000000000030037006E
:103B30008040EB000040EB00C8FE0700A07B0200C5
:103B4000000000001E80FB000080FA00000006005C
:103B50002200FA000000EB00700798006000B80037
:103B600040079800510798006000B800008FBE0021
:103B7000780047002200200003002000E2780200C5
:103B8000000000007A0047004200200003002000EF
:103B9000E2780200000000007E00470042002000A2
:103BA00003002000E2780200000000005E089000A0
:103BB000EE089000765C020000000000E0ED2000BE
:103BC000C080900061079800E0ED200040809000E8
:103BD000E10F500003003A00E1ED2000200020003A
:103BE000C08098005E099000EE0990004E08900099
:103BF000F20047000C51020000000000005798003E
:103C00000E509000E14F5000EC003A00E0ED200033
:103C10006E019000428098008040EB0010C0B3001D
:103C20008EFE0700A07B0200000000004E089000FE
:103C3000E70F5000030032004E089000E80F5000DC
:103C400011003A004E089000E70F50000B003A00B8
:103C5000E0ED2000F088900060889000E00F5000B8
:103C6000E08F580005003A005E089000EE089000D2
:103C7000E2ED200060899800718998006000B8002A
:103C8000500F9800610F98001E089000AE08900039
:103C9000E033020000000000E0ED200040809000D2
:103CA000E10F5000060032004E089000E70F500070
:103CB000030032004E089000E80F500070003A00F8
:103CC000E0ED20008080900070389000E03302002A
:103CD000000000004E089000EF0F500001003A0075
:103CE00000000000E0ED2000C08190006307980014
:103CF000E1ED200020002000C08098005E099000C7
:103D0000EE0990004E089000F20047000C510200AE
:103D100000000000E0ED2000EE00900041809800DF
:103D20001E099000AE0990004E0890005C770200DA
:103D3000000000001E099000AE09900042079800A4
:103D4000530798007E0890008E109000200798007E
:103D5000310798002F0037007E0990008E119000E7
:103D60000060200001002000800F5100818F590069
:103D7000040036000060200001002000008FBE001B
:103D8000030037007E0990008E119000028FBE0064
:103D9000E0ED20008080900070389000E033020059
:103DA000000000001E01BE000000EB00E2780200EF
:103DB00000000000E0ED200080809000703890004E
:103DC000000178001E02BE004E009000DE00900050
:103DD000DE6F020000000000005798004E009000C7
:103DE000DE0090003E014000AE8148000200BE00AF
:103DF00040079800510798007E0890008E109000B0
:103E00003E015000AE8158000200BE00700F9800C5
:103E1000011798000E5090000004E00005003200E9
:103E20007E0890008E109000E00F5000E08F580048
:103E3000C9FF3A000E5090000004E0001E0032005E
:103E40002E009000BE009000700F9800011798009F
:103E50001E099000AE099000420798005307980091
:103E60007E0890008E1090004E019000DE019000C0
:103E7000AC76020000000000700798000E003700CA
:103E80007E0990008E1190000000EB00E2780200A5
:103E9000000000001E089000AE089000E033020011
:103EA000000000007E0890008E109000245B02004D
:103EB00000000000700798007600470022002000F4
:103EC00003002000E278020000000000BE0890001D
:103ED0007E009000008040000000E00003003200FF
:103EE0000040EB0000579800340037004E08900067
:103EF000EE0F50000C003200CE08900000022000AF
:103F0000808F5000080032001E089000AE0890001C
:103F1000FA5A0200000000000004E0000200320033
:103F20000C5A0200000000004E089000E70F5000FD
:103F300009003A007E0890008E1090008000780002
:103F4000E0ED200001209800E1ED2000714090009C
:103F50000000A000F04098004E089000E80F5000CC
:103F600009003A007E0890008E10900080007800D2
:103F7000E0ED200041189800E1ED20006140900044
:103F80000070A000E04098001E099000AE0990006B
:103F90004E089000004378007E004700FA0047007A
:103FA0000202BE008001780001017800864078009E
:103FB00010C0B3000A000700005798008040EB00D3
:103FC0000E509000A5FD0700A07B0200000000003D
:103FD0000E5090000080FB000080FA0000000600F8
:103FE0000C00FA00204798003147980022079800FB
:103FF00033079800440798005507980010C0B30095
:10400000004F78003E0090001000BE00E00F50000E
:10401000E08F5800750032002E409000E14F5000B4
:1040200039003A003E409000EC4F50000C00320046
:104030003E409000ED4F5000090032003E4090009D
:10404000FF4F5000060032003E409000F04F5000FD
:10405000030032003E409000F14F50001A003A0039
:104060008040EB000000EB0020020700004F7800CA
:104070001E04E0005E00320010C0B300527B02005C
:10408000000000003E0090001002BE002E009000D4
:104090001001BE004E039000DE0390008000EB0094
:1040A0003E409000CA43020000000000004F78002C
:1040B0001E04E0004E003A0011C0B3004000200092
:1040C0000A0207004A003700BE40900000C2B30059
:1040D00080CF500046003A00E0ED20008080900044
:1040E00070389000000178000420200005002000B6
:1040F00000E0200001002000DE6F02000000000050
:10410000004F78003A0037003E409000EC4F5000DE
:104110000C0032003E409000ED4F5000090032008C
:104120003E409000FF4F5000060032003E4090009D
:10413000F04F5000030032003E409000F14F50001D
:104140001A003A008040EB000000EB00E701070096
:10415000004F78001E04E0002500320010C0B300BC
:10416000527B0200000000003E0090001002BE00E2
:104170002E0090001001BE004E039000DE03900060
:104180008000EB003E4090000E4402000000000062
:10419000004F78001E04E00015003A0011C0B30083
:1041A00040002000D101070011003700BE40900000
:1041B00000C2B30080CF50000D003A00E0ED2000B7
:1041C000808090007038900000017800042020006A
:1041D0000500200000E0200001002000BC6E02006D
:1041E00000000000004F78000100370000000000D0
:1041F0001E80FB000080FA00000006000800FA00A4
:1042000020079800310798000E80E8002200200067
:1042100003002000E2780200000000009E009000F1
:104220003E009000808F500003003A003E00900056
:10423000000F7800090037009E0090003E009000BB
:10424000808F5000030031001E009000000F7800A6
:10425000020037003E009000000F78001E0078003A
:104260006101B8002E009000E2780200000000001A
:104270001E0090009E0F5000090036001E009000A6
:104280001E0F500002003700FA7802000000000004
:104290001E0FE9000080EB009E0F1000FAFF3A00AD
:1042A0000080FA00000006000600FA0010C0B3000B
:1042B00020479800640047002200200003002000EF
:1042C000E2780200000000002E009000000F78004D
:1042D000001F20009E0F100004003600001F200069
:1042E000000F78000040EB00204798001E00780087
:1042F0006101B80020062100E27802000000000001
:104300002E0090001E005000200798000200370089
:10431000FA780200000000002E0090000000E90082
:10432000200798002E009000E10F4000F8FF3A00AF
:104330009E007800678060000000E000020032000C
:104340000040EB00204798002E4090000080FB00CA
:104350000080FA00000006000000FA00200621009C
:10436000021F20008000EB000C0B02000000000088
:104370000080FA00000006000E00FA006A00470004
:104380004200200003002000E2780200000000004C
:10439000660047004200200003002000E27802008F
:1043A0000000000010C0B300527B020000000000BB
:1043B00011C0B3000000EB004C010700004F780073
:1043C0001E04E0000A0032003E019000CE01900081
:1043D0005E039000EE0390000E80E800000278007B
:1043E0000600BE002043020000000000004F7800DD
:1043F0001E04E00003003A0011C0B300400020009A
:104400003A0107001E04E00003003A0011C0B300A7
:1044100040002000350107008040EB001E4078007E
:104420008EFC07000E80E8008040EB004200200078
:10443000030020004E7A0200000000001E80FB00F6
:104440000080FA00000006000C00FA0010C0B30063
:10445000204798006600470022002000030020004B
:10446000E278020000000000E0ED2000F080900003
:104470003E009000808F50005E003E00E0ED200086
:10448000F08090003E009000808F500005003600C4
:104490000000EB00300798003E009000000F78000D
:1044A00008003700BE009000E0ED20007080900012
:1044B0000080500030079800E0ED2000F080900070
:1044C000010F7800D2420200000000008040EB00A3
:1044D0002E40900061FC0700A07B0200000000005D
:1044E0001E0078006101B800E0ED20000088900017
:1044F000E2780200000000000000EB0020079800B6
:10450000170037003E009000E10F50000900320014
:104510006A0047002200200003002000E278020029
:10452000000000003E0090000080E9003007980085
:1045300007003700FA780200000000000080FB004E
:10454000500798003E0090000000E90030079800F6
:104550005E009000AE0090000080400020079800B0
:104560003E0090000000E000E6FF3A0068004700CF
:104570002200200003002000E2780200000000007A
:10458000E0ED2000F0809000E0ED20000088900039
:10459000E25B020000000000800078002E00900026
:1045A0000100400020079800CE0090002E009000EF
:1045B000008040000000E000030032000040EB00FB
:1045C000204798000D003700DE4402000000000084
:1045D00020479800225C0200000000000001EB0070
:1045E00091042000100020009A3802000000000012
:1045F000020037000040EB00204798008040EB00AD
:104600002E40900015FC07000080FA000000060014
:104610000A00FA00100798004147980010C0B30044
:10462000104798000040EB00004F7800460207005A
:104630000004E000010032002702070010C0B300B0
:104640000C3E02000000000010C0B300BE3C02009F
:10465000000000004E4090000004E0000300320023
:1046600010C0B300527B0200000000000001EB000C
:1046700001032000100020009A3802000000000012
:10468000AC3C02000000000090042000D83B020077
:10469000000000000004E00066003A001E409000A8
:1046A0000004E00060003200F0002000323B020015
:1046B000000000001E0090006101B8003207980061
:1046C0004307980090002000010020003E01900068
:1046D000CE019000800F5100818F590049003E00AB
:1046E0003E009000CE0090000060010028003700DE
:1046F0002300370018003700130037000900370087
:1047000037003700390037003B0037000100370021
:1047100029003700CA44020000000000104798003A
:104720003A0037006644020000000000104798007D
:104730001E4090000004E0003400320010C0B300BE
:10474000004F7800310037007A440200000000007A
:10475000104798002D0037003E5A0200000000006C
:10476000104798001E4090000004E000270032002F
:10477000B6440200000000001047980023003700F4
:104780008E44020000000000104798001F00370010
:104790003E5A020000000000104798001E409000A2
:1047A0000004E00019003200A244020000000000F2
:1047B00010479800150037000040EB00A86C02007D
:1047C000000000000071220001002000F436020009
:1047D0000000000010C0B300104798000B00370025
:1047E0000040EB0010479800080037000040EB0045
:1047F00010479800050037000040EB001047980074
:10480000020037000040EB0010479800E002200053
:10481000323B020000000000E1ED200061F8920050
:104820000010A100E0F89A0080002000323B020056
:10483000000000001E4090000004E000170032005D
:10484000543C020000000000804078000040EB0073
:10485000104798000104E00002003A0010C0B300C5
:10486000104798001E4090000004E000060032004F
:104870000001EB00310420000000EB009A38020038
:1048800000000000050037000001EB00410420009B
:104890000000EB009A380200000000001E04E00057
:1048A000020032000C5A0200000000004E4090004E
:1048B0000004E0000300320011C0B3001E4090006D
:1048C00066FB07000040EB00BE3C02000000000059
:1048D0000040EB000C3E0200000000001E40900073
:1048E0000080FB000080FA00000006000A00FA00C9
:1048F000200798006147980010C0B3003047980027
:104900000040EB00204798000040EB00004F78008B
:104910008D010700104798006E4090000004E000F1
:104920000300320010C0B300527B02000000000000
:104930001E4090000004E0002D003A00C245020035
:1049400000000000366A020000000000E1ED2000D7
:1049500061F892000000A100E0F89A00E1ED20006B
:1049600061F892000010A100E0F89A00F002200027
:10497000323B02000000000022350200000000006F
:10498000C47C02000000000030002000B469020076
:1049900000000000304798003E4090000004E00016
:1049A00003003200F244020000000000304798008B
:1049B0003E4090000004E000060032000001EB00E1
:1049C000010320000000EB009A3802000000000004
:1049D000050037000000EB00323B02000000000041
:1049E000585C02000000000010C0B300004F7800C7
:1049F0002E009000E60F500002003200AC3C020096
:104A0000000000003E4090000004E0007D00320005
:104A10002E009000400798004E009000E20F5000DA
:104A20005D0032004E009000E20F500004003E0096
:104A30004E009000E10F5000080032006500370082
:104A40004E009000E30F5000590032004E009000DD
:104A5000E60F50002A0032005E00370010C0B3009D
:104A60000C3E02000000000010C0B300BE3C02007B
:104A7000000000002235020000000000543C02004B
:104A800000000000804078000040EB0030479800B4
:104A90000104E00002003A0010C0B3003047980063
:104AA00010C0B300889B02000000000010C0B300DB
:104AB000649B02000000000052440200000000005D
:104AC00030479800AA3D02000000000020479800EF
:104AD0003E4090000004E00004003200D0042000BA
:104AE000323B020000000000460037002235020081
:104AF00000000000C47C02000000000041003700FC
:104B000006450200000000003047980020C0B300B6
:104B1000649B0200000000000040EB00889B020044
:104B2000000000000040EB000C3E0200000000000E
:104B30000040EB00BE3C020000000000AA3D020065
:104B400000000000204798003E4090000004E00074
:104B500009003200543C0200000000008040780050
:104B60000040EB00304798000104E00002003A00EA
:104B700010C0B3003047980010032000323B020001
:104B8000000000002235020000000000C47C02008A
:104B9000000000001B0037006A4502000000000012
:104BA0003047980010C0B300204798001500370028
:104BB00056450200000000003E4090000004E00066
:104BC0001000320010032000323B02000000000001
:104BD0000C003700AA3D02000000000020479800AA
:104BE000543C020000000000804078000040EB00D0
:104BF000304798000104E00002003A0010C0B30002
:104C0000304798002E4090000004E0001F00320062
:104C10003E4090000004E0001C0032000000EB0069
:104C2000323B0200000000000001EB000103200005
:104C3000100020009A380200000000001A4502000F
:104C4000000000002003200001002000F4360200D4
:104C500000000000F244020000000000304798000D
:104C60003E4090000004E000060032000001EB002E
:104C7000010320000000EB009A3802000000000051
:104C800002003700585C0200000000003E40900027
:104C90000004E000030032002E009000E40F5000FA
:104CA00001003A008C0007003E4090000080FB00AD
:104CB0000080FA00000006001000FA006000B80052
:104CC00030079800410798006E004700220020003E
:104CD00003002000E2780200000000000E00E8005F
:104CE0001200200003002000E27802000000000013
:104CF0007E0090000000E9000100200050079800AD
:104D0000610798006000B800765C020000000000B7
:104D10003E019000CE0190001E4090008E80E80081
:104D20000C51020000000000004F780010C0B300DA
:104D30009E4F100027003A005E009000EE009000A9
:104D40001E019000AE0190001E4390000002BE00C4
:104D5000064078002055020000000000004F780057
:104D600010C0B3009E4F10001A003A001E009000C1
:104D7000AE009000E0330200000000005E019000F1
:104D8000EE0190000000EB00E2780200000000005D
:104D90005E009000EE00900080007800E0ED2000C2
:104DA000113898001E009000AE0090009E439000C5
:104DB0006A014700660347000002BE0082017800D6
:104DC000060178008740780010C0B30084FC07001B
:104DD000004F78001E80FB000080FA0000000600F3
:104DE0000200FA0011C0B3000000EB00BFFE070094
:104DF000004F78001E04E00003003200DE45020090
:104E000000000000004F78001E04E00002003200A5
:104E10000C5A0200000000008040EB001E407800A9
:104E20000EFA07000080FA00000006000A00FA00EF
:104E300010C0B300004F78000E80E8008100200011
:104E4000EEFC07000E80E8001000BE00610160006B
:104E50006000B80003002000020070008380700032
:104E60000000E00005003200E1ED200061D092007A
:104E70000050A000E0D09A0004003700E1ED2000CF
:104E800061D092000050A100E0D09A000E80E800AE
:104E90001000BE008100D1000080D30061006000DE
:104EA0000004E00005003200E1ED200061D0920036
:104EB0000070A000E0D09A0004003700E1ED20006F
:104EC00061D092000070A100E0D09A001E80FB002B
:104ED0000080FA00000006000000FA006A450200A7
:104EE000000000000001EB00010320001000200082
:104EF0009A380200000000000000EB00323B020084
:104F0000000000001A45020000000000366A02009E
:104F1000000000000040EB00BE3C0200000000006A
:104F20000040EB00889B0200000000000040EB0006
:104F30000C3E020000000000585C0200000000006F
:104F40000080FA00000006000200FA008200200043
:104F500003002000C0682100A23A02000000000007
:104F60000004E00007003A000202200003002000D5
:104F7000C0682100A23A0200000000000004E00026
:104F80000300320010002000000F780002003700FC
:104F90000000EB00000F78001E4078000080FB004E
:104FA0000080FA00000006000200FA000040EB005A
:104FB000004F78008040EB008000200094FD070047
:104FC000004F78001E04E00010003200E0ED2000E9
:104FD000205891000004E000060032000001EB00C0
:104FE000E10320000000EB009A38020000000000FE
:104FF0000A0037000001EB00F10320000000EB0085
:105000009A38020000000000040037001E04E0008F
:1050100002003A00585C0200000000001E80FB0005
:105020000080FA00000006000200FA00AA3D02001B
:1050300000000000004F78001E04E0000A0032006B
:10504000C1FF07000004E000040032008040EB00D4
:105050002000200025FE0700030037008040EB0001
:10506000900020006AFD07000080FA0000000600A2
:105070000E00FA0010C0B300204798000040EB007B
:10508000004F7800AA0137000040EB00B236020062
:10509000000000000001EB00810020000000EB0098
:1050A0009A3802000000000064004700220020003F
:1050B00003002000E2780200000000000001EB0085
:1050C00091002000100020009A380200000000002B
:1050D000640047008040EB00220020000300200015
:1050E0004E7A02000000000010C0B3002047980074
:1050F00010C0B300104798002E0090006101B80066
:1051000000FD2F00F1FF2F000201400083814800C5
:105110005207980063079800100620000100200045
:105120005E019000EE019000800F5100818F5900C8
:105130005C013E005E009000EE0090000060010007
:10514000780037007D003700820037008700370085
:10515000AB003700980037003B01370051013700A2
:10516000500137004F0137004E0137004D01370025
:105170004C0137004B0137004A0137004901370025
:10518000480137005000370052003700DF00370079
:10519000D700370043013700420137004101370093
:1051A000400137003F0137003E0137003D01370025
:1051B0003C0137003B0137003A0137003901370025
:1051C0003801370037013700B0003700A80037003A
:1051D000BE003700B600370032013700310137001A
:1051E000290137002F0137002E0137002D0137002C
:1051F0002C0137002B0137002A0137002901370025
:10520000280137003600370038003700EF0037003C
:10521000E700370023013700220137002101370062
:10522000200137001F0137001E0137001D01370024
:105230001C0137001B0137001A0137001901370024
:105240001801370017013700C0003700B8003700D9
:10525000CE003700C60037001201370011013700B9
:10526000100137000F0137000E0137000D01370024
:105270000C0137000B0137000A0137000901370024
:10528000DB003700E5003700060137000501370075
:105290000401370003013700020137000101370024
:1052A00002013700FF003700FE003700FD00370025
:1052B000FC003700FB003700FA003700F900370028
:1052C000EB003700ED0037000040EB00204798006E
:1052D000F60037000040EB0020479800F30037004D
:1052E0000040EB0020479800F00037008040EB00C2
:1052F0000040EB00D9F807000040EB00004F980099
:10530000680047008040EB001200200003002000EE
:105310004E7A0200000000000040EB0010479800A9
:10532000E200370011C0B30010C0B300B44E020059
:105330000000000020479800DC00370011C0B300D7
:105340000040EB00B44E020000000000204798002F
:10535000D60037008040EB000040EB00B44E020066
:105360000000000020479800D0003700660047008A
:105370002200200003002000E2780200000000006C
:105380003E0090006101B80000A02100E278020018
:105390000000000010C0B300527B020000000000BB
:1053A000BE00900000A021009C4F02000000000001
:1053B00020479800BD00370066004700220020000B
:1053C00003002000E2780200000000003E00900090
:1053D0006101B80000A02100E27802000000000096
:1053E00010C0B300527B02000000000000A02100AA
:1053F000485002000000000020479800AB00370032
:10540000660047002200200003002000E27802002E
:105410000000000010C0B300527B0200000000003A
:10542000BE00900000A021001E4F020000000000FE
:10543000204798008040EB002E40900087F807003E
:105440002E4090000004E000060032003E00900074
:105450006101B8008040EB0000A021004E7A0200FC
:10546000000000000040EB00104798008F0037005C
:105470008041EB0012C0B30001C2B3000000EB009A
:10548000CC00070020479800880037008041EB00DF
:1054900012C0B30001C2B3000000EB001501070009
:1054A000204798000040EB00104798007F0037002D
:1054B0008041EB0012C0B30001C1B3000006200020
:1054C000BC00070020479800780037008041EB00BF
:1054D00012C0B30001C1B30000062000050107009F
:1054E000204798000040EB00104798006F003700FD
:1054F0008041EB0012C0B30001C1B30000052000E1
:10550000AC00070020479800680037008041EB009E
:1055100012C0B30001C1B30000052000F500070070
:10552000204798000040EB00104798005F003700CC
:105530008041EB000041EB0001C2B3000000EB0032
:105540009C00070020479800580037008041EB007E
:105550000041EB0001C2B3000000EB00E5000700D2
:10556000204798000040EB00104798004F0037009C
:105570008041EB000041EB0001C1B30000062000B8
:105580008C00070020479800480037008041EB005E
:105590000041EB0001C1B30000062000D500070068
:1055A000204798000040EB00104798003F0037006C
:1055B0008041EB000041EB0001C1B3000005200079
:1055C0007C00070020479800380037008041EB003E
:1055D0000041EB0001C1B30000052000C500070039
:1055E000204798000040EB00104798002F0037003C
:1055F000660047002200200003002000E27802003D
:1056000000000000BE00900010C0B3006C5002000B
:105610000000000020479800240037006600470083
:105620002200200003002000E278020000000000B9
:10563000BE00900010C0B3009850020000000000AF
:10564000204798001900370066004700220020001C
:1056500003002000E2780200000000003E009000FD
:105660003E4D020000000000204798000F00370068
:1056700033000700204798000C003700490007005E
:105680002047980009003700810220000040EB000D
:105690006C5002000000000010C0B300004F780002
:1056A000020037000040EB0020479800020028006D
:1056B00003002000C0692100A23A0200000000009F
:1056C0000004E000F9FF3A001E4090000004E000F2
:1056D000030032008040EB002E409000DFF707000F
:1056E000A07B0200000000002E4090000004E000BB
:1056F00001003A00000000000000EB0020079800C5
:105700000001EB0081002000100020009A38020008
:105710000000000010C0B300B2360200000000001C
:10572000CC780200000000000004E00056FE3A00C1
:105730001E04E000FAFF32000080FA0000000600BC
:105740000000FA0010C0B300CA50020000000000C0
:105750008040EB0010C0B300C0F70700A07B020040
:105760000000000010C0B300527B020000000000E7
:105770000200280003002000C0692100A23A0200B4
:10578000000000000004E000F9FF3A000040EB00D8
:10579000CA50020000000000100020000080FA0043
:1057A000000006000000FA00100020000080FA004F
:1057B000000006002C00FA0020179800616798008E
:1057C00072679800036F98000000EB0010079800C4
:1057D000640047006011B8000288BE006400400009
:1057E0006011B8000288BE00640040006011B8007B
:1057F0000288BE00640040006011B8000288BE004C
:10580000640040006011B8000288BE0064004000DF
:105810006011B8000288BE00640040006011B8004A
:105820000288BE00640040006011B8000288BE001B
:10583000FA78020000000000004F78009E009000FF
:105840001E41780064004700008040000248780054
:105850001E0090000000E800100798001E04E00001
:1058600003003A000E6890000004E00005003200DA
:105870006E6090008080FB001E009000808F5000C2
:10588000EBFF3E002E10900050179800DE109000A5
:105890000100E0000500320000072000DE1090004B
:1058A000808F5000090032000F003700640147006C
:1058B000E40020000500200040002000010020003E
:1058C000DE6F02000000000007003700640147009F
:1058D00044002000050020002001200001002000DD
:1058E000DE6F020000000000100020000080FA00BF
:1058F000000006002A00FA0010179800416798007F
:1059000052679800636798000040EB00004F7800F2
:105910000E80E8006011B8000288BE0064004000FC
:105920006011B8000288BE00640040006011B80039
:105930000288BE00640040006011B8000288BE000A
:10594000640040006011B8000288BE00640040009E
:105950006011B8000288BE00640040006011B80009
:105960000288BE00640040006011B8000288BE00DA
:105970001E10900040179800CE1090000100E0002B
:105980000500320000072000CE109000808F5000EC
:10599000090032000F0037000E81E800E40020000B
:1059A000050020004000200001002000BC6E020025
:1059B00000000000070037000E81E80044002000CE
:1059C000050020002001200001002000BC6E020024
:1059D000000000008040EB0010C0B3001FF707007C
:1059E0009E80FB000E80E8000080400010407800A0
:1059F000104798001E4FE8001E409000E14F400005
:105A000005003A006E6090000004E00002003A00D9
:105A10000040EB00104798000E00E8008040EB00CB
:105A200012002000030020004E7A02000000000057
:105A30001E4090000004E00003003A006E609000F9
:105A40000004E000030032004E6090009E4F100002
:105A5000E3FF3900100020000080FA00000006007B
:105A60000400FA000000EB00000F780000022000A4
:105A7000000F78000E0078008040EB00220020002C
:105A8000030020004E7A0200000000008040EB007E
:105A900010C0B300F1F607000000EB00000F780023
:105AA0009E007800806221006140780020479800C5
:105AB0000100E800000F78002E409000E14F400008
:105AC00002003A000040EB00204798000E80E800FA
:105AD0008040EB0012002000030020004E7A0200FC
:105AE000000000002E4090000004E000030032009F
:105AF0001E007800FF0F5000E9FF36000080FA001A
:105B0000000006000600FA0010C0B300004F780045
:105B10000E80E80041002000B8F907000E80E80080
:105B200042002000212521001A0B02000000000085
:105B30000000E00006003200202521008E80E800F1
:105B40001101BE000288BE0007000700004F780068
:105B500010C0B300527B0200000000001E80FB005A
:105B60000080FA00000006000600FA0010C0B30032
:105B700040479800C245020000000000E1ED20000F
:105B800061F892000000A100E0F89A00E1ED200029
:105B900061F892000010A100E0F89A00D06A0200BB
:105BA000000000004047980010C0B300B236020069
:105BB000000000004E4090000004E000320032007F
:105BC000F0FF2F0071002000008FBE0001003700A1
:105BD00000000000C0032000D83B020000000000CD
:105BE0000004E00008003A000080EB008080EB0039
:105BF0001E0F40005E9748001E00BE00E00F5000E0
:105C0000E08F5800F2FF3A000040EB00B23602008D
:105C1000000000001E00BE00E00F5000E08F5800A2
:105C20001C003200E1ED200061F892000000A000AD
:105C3000E0F89A00E1ED200061F892000010A00069
:105C4000E0F89A0020002000B46902000000000083
:105C50008040EB00800020006DFA0700366A0200E9
:105C600000000000E1ED200061F892000000A100BA
:105C7000E0F89A00E1ED200061F892000010A10028
:105C8000E0F89A00030037000040EB00B236020053
:105C9000000000004E4090000080FB000080FA00F1
:105CA000000006000200FA008040EB0010C0B300C4
:105CB0006AF607000E007800BA5E020000000000DD
:105CC0001E0078008040EB008208200003002000C6
:105CD0004E7A0200000000000080FA00000006007A
:105CE0003600F800809FBE00829FBE00849FBE00E9
:105CF000869FBE001800FA0042C0BF000080FB0073
:105D00004500DE000080FB00300798009002800014
:105D100010079800FF3FFC0042C0BF007F406000BA
:105D200001CCB3000140700042E0B7001E009000BB
:105D300090028800B1B680000000EB008008780077
:105D4000A00180002007980010002000A00188001A
:105D500084E0A900966E0200000000008E5E020042
:105D6000000000000004E00011003200309F8000BD
:105D70000000E800309F8800319F8000409F800035
:105D8000808F50000B0036000000EB00309F880031
:105D9000CDC2BF00624060000004E000020032009B
:105DA000CD22A90003003700CD22A8000100370052
:105DB000CD22A800A45E0200000000000004E00064
:105DC000D7003200CD22A900509F80000000E800DB
:105DD000509F8800519F8000609F8000808F5000FE
:105DE000CF003600209F80000000E800209F880040
:105DF000C09F80008040EB0071579800E10F500079
:105E000002003A0012C0B30072579800209F800031
:105E10008040EB0061579800E10F500002003E0007
:105E200012C0B30062579800FE5090006E5190006F
:105E300002C060000004E0000B0032000000EB0034
:105E4000509F8800CDC2BF00644060000004E000A5
:105E500003003200CD42A900CD62A900170037002F
:105E6000CD42A80015003700C09F80008040EB00A5
:105E700051579800E10F500002003A0012C0B300E1
:105E800052579800209F80008040EB0041579800B7
:105E9000E30F50000200360012C0B30042579800D2
:105EA000DE5090004E51900002C060000004E000FF
:105EB000020032000000EB00209F8800C09F80009D
:105EC0008040EB0031579800E20F500002003A008A
:105ED00012C0B30032579800209F80008040EB0032
:105EE00021579800E40F500002003E0012C0B3009A
:105EF00022579800BE5090002E51900002C06000C2
:105F00000004E0000B0032000000EB00509F88000E
:105F1000CDC2BF00644060000004E0000300320016
:105F2000CD42A900CD62A90017003700CD42A800DC
:105F300015003700C09F80008040EB00115798008B
:105F4000E20F500002003A0012C0B300125798004E
:105F5000209F80008040EB0001579800EF0F500019
:105F60000200360012C0B300025798009E50900005
:105F70000E51900002C060000004E00002003200F8
:105F80000000EB00209F8800C09F80008040EB0055
:105F9000714F9800E30F500002003A0012C0B300A6
:105FA000724F9800209F80008040EB00614F980066
:105FB000E60F500002003E0012C0B300624F98008E
:105FC000FE4890006E49900002C060000004E000AE
:105FD0000B0032000000EB00509F8800CDC2BF00D4
:105FE000644060000004E00003003200CD42A900DC
:105FF000CD62A90017003700CD42A8001500370078
:10600000C09F80008040EB00514F9800E30F50008C
:1060100002003A0012C0B300524F9800209F800047
:106020008040EB00414F9800F10F50000200360015
:1060300012C0B300424F9800DE4890004E499000D5
:1060400002C060000004E000020032000000EB002B
:10605000209F8800C09F80008040EB00314F980057
:10606000E40F500002003A0012C0B300324F980013
:10607000209F80008040EB00214F9800E80F5000E7
:1060800002003E0012C0B300224F9800BE489000AC
:106090002E49900002C060000004E0000B003200B6
:1060A0000000EB00509F8800CDC2BF00644060003C
:1060B0000004E00003003200CD42A900CD62A90037
:1060C00017003700CD42A80015003700C09F8000A0
:1060D0008040EB00114F9800E40F500002003A009E
:1060E00012C0B300124F9800209F80008040EB0048
:1060F000014F9800F30F50000200360012C0B300A9
:10610000024F98009E4890000E49900002C0600027
:106110000004E000020032000000EB00209F880035
:106120002E009000A0018800B1B680003000200051
:106130008008780090028000000F7800FF3FFC008C
:106140003E00900067406000C500DD0042C0BF0017
:106150007F4060000140700042E0B7001E00780000
:10616000900288000080FA004F03BE004F02BE007C
:106170004F01BE004F00BE003600F900004006008F
:106180003600F800809FBE00829FBE00849FBE0044
:10619000869FBE000800FA0042C0BF000080FB00DE
:1061A0004500DE000080FB00300798009002800070
:1061B00010079800FF3FFC0042C0BF007F40600016
:1061C00001CCB3000140700042E0B7001E00900017
:1061D00090028800B1B680000000EB0080087800D3
:1061E000A00180002007980010002000A001880076
:1061F0005C830200000000008EC0A9009EC0A800C1
:106200002E009000A0018800B1B680003000200070
:106210008008780090028000000F7800FF3FFC00AB
:106220003E00900067406000C500DD0042C0BF0036
:106230007F4060000140700042E0B7001E0078001F
:10624000900288000080FA004F03BE004F02BE009B
:106250004F01BE004F00BE003600F90000400600AE
:106260003600F800809FBE00829FBE00849FBE0063
:10627000869FBE000000FA008780A90020B0800041
:106280000000E00001003A009780A90010B08000F3
:106290000000E0000600320010B08000E10F500066
:1062A0000300320011B0800030B080000100010016
:1062B0000080FA004F03BE004F02BE004F01BE0037
:1062C0004F00BE003600F90000400600809FBE006F
:1062D0000200FA00A0018000000F780010002000EA
:1062E000A00188008660A900213E210010C0B300F3
:1062F000804878001E007800A00188000080FA0025
:106300004F00BE0000400600809FBE000800FA005B
:1063100042C0BF000080FB004500DE000080FB00A3
:10632000300798009002800010079800FF3FFC00A3
:1063300042C0BF007F40600001CCB300014070004C
:1063400042E0B7001E00900090028800B1B68000C5
:106350000000EB0080087800A00180002007980072
:1063600010002000A00188008AA0A9002E00900043
:10637000A0018800B1B680003000200080087800BD
:1063800090028000000F7800FF3FFC003E0090006C
:1063900067406000C500DD0042C0BF007F40600074
:1063A0000140700042E0B7001E00780090028800B3
:1063B0000080FA004F00BE00004006000C00FA000A
:1063C0004007980042C0BF000080FB004500DE008F
:1063D0000080FB00300798009002800010079800B2
:1063E000FF3FFC00210420009140780000CEB30064
:1063F00000C0700042E0B7001E00900090028800CC
:10640000B0B680009000780021079800B0B68000F8
:1064100010007800E30F500010003A00BE0090001A
:10642000000E200080806000000E2000808F500051
:1064300004003A00B1B680000000EB00800878004C
:1064400003003700B1B680001000200080087800FB
:10645000B0B680009000780021079800B0B68000A8
:10646000900078004E009000808F500014003200A1
:106470004E00900050079800DE0090000100E00000
:10648000040032005E009000E10F5000070032006F
:106490000B0037007000200030079800B0B6800075
:1064A000CE00900001087800050037000000EB00E6
:1064B00030079800B0B68000CE0090000108780048
:1064C00090028000000F7800FF3FFC003E0090002B
:1064D00067406000C500DD0042C0BF007F40600033
:1064E0000140700042E0B7001E0078009002880072
:1064F0002E0090000080FA00000006000000FA0064
:106500008020A900FFFF37000000FA008060A9008A
:10651000FFFF37000000FA008040A900FFFF3700AE
:106520000000FA008080A900FFFF37000000FA0099
:106530008020A900FFFF37000000FA008060A9005A
:10654000FFFF37000000FA008040A900FFFF37007E
:106550000000FA008080A900FFFF37000E00FA005B
:106560003007980041079800520798006307980089
:106570000040EB001047980010C0B300004F7800B7
:106580005E0090006101B80000002F00F1072000BC
:1065900002004000838048001007980021079800FF
:1065A0003E0090000000E0002B003A00240037007D
:1065B0001E019000AE019000F0FF2F00F1072000B7
:1065C000800F5100818F59001B003E000E80E800B3
:1065D0000080E800104078000080FB0090018800F7
